{
  "_format": "hh-sol-artifact-1",
  "contractName": "TitulosAcademicos",
  "sourceName": "contracts/TitulosAcademicos.sol",
  "abi": [
    {
      "anonymous": false,
      "inputs": [
        {
          "indexed": true,
          "internalType": "address",
          "name": "estudiante",
          "type": "address"
        },
        {
          "indexed": false,
          "internalType": "string",
          "name": "nombreInstitucion",
          "type": "string"
        },
        {
          "indexed": false,
          "internalType": "string",
          "name": "tipoTitulo",
          "type": "string"
        },
        {
          "indexed": false,
          "internalType": "uint256",
          "name": "fechaEmision",
          "type": "uint256"
        }
      ],
      "name": "TituloEmitido",
      "type": "event"
    },
    {
      "inputs": [
        {
          "internalType": "string",
          "name": "_nombreInstitucion",
          "type": "string"
        },
        {
          "internalType": "string",
          "name": "_tipoTitulo",
          "type": "string"
        }
      ],
      "name": "emitirTitulo",
      "outputs": [],
      "stateMutability": "nonpayable",
      "type": "function"
    },
    {
      "inputs": [
        {
          "internalType": "address",
          "name": "",
          "type": "address"
        }
      ],
      "name": "titulos",
      "outputs": [
        {
          "internalType": "address",
          "name": "estudiante",
          "type": "address"
        },
        {
          "internalType": "string",
          "name": "nombreInstitucion",
          "type": "string"
        },
        {
          "internalType": "string",
          "name": "tipoTitulo",
          "type": "string"
        },
        {
          "internalType": "uint256",
          "name": "fechaEmision",
          "type": "uint256"
        }
      ],
      "stateMutability": "view",
      "type": "function"
    },
    {
      "inputs": [
        {
          "internalType": "address",
          "name": "_estudiante",
          "type": "address"
        }
      ],
      "name": "verificarTitulo",
      "outputs": [
        {
          "internalType": "string",
          "name": "",
          "type": "string"
        },
        {
          "internalType": "string",
          "name": "",
          "type": "string"
        },
        {
          "internalType": "uint256",
          "name": "",
          "type": "uint256"
        }
      ],
      "stateMutability": "view",
      "type": "function"
    }
  ],
  "bytecode": "0x608060405234801561001057600080fd5b50610e46806100206000396000f3fe608060405234801561001057600080fd5b50600436106100415760003560e01c80638012107f14610046578063900f376314610078578063da7684d1146100ab575b600080fd5b610060600480360381019061005b91906108c1565b6100c7565b60405161006f93929190610b98565b60405180910390f35b610092600480360381019061008d91906108c1565b61038a565b6040516100a29493929190610b45565b60405180910390f35b6100c560048036038101906100c091906108ea565b6104ea565b005b60608060008073ffffffffffffffffffffffffffffffffffffffff166000808673ffffffffffffffffffffffffffffffffffffffff1673ffffffffffffffffffffffffffffffffffffffff16815260200190815260200160002060000160009054906101000a900473ffffffffffffffffffffffffffffffffffffffff1673ffffffffffffffffffffffffffffffffffffffff16141561019c576040517f08c379a000000000000000000000000000000000000000000000000000000000815260040161019390610bfd565b60405180910390fd5b60008060008673ffffffffffffffffffffffffffffffffffffffff1673ffffffffffffffffffffffffffffffffffffffff1681526020019081526020016000206040518060800160405290816000820160009054906101000a900473ffffffffffffffffffffffffffffffffffffffff1673ffffffffffffffffffffffffffffffffffffffff1673ffffffffffffffffffffffffffffffffffffffff16815260200160018201805461024d90610d58565b80601f016020809104026020016040519081016040528092919081815260200182805461027990610d58565b80156102c65780601f1061029b576101008083540402835291602001916102c6565b820191906000526020600020905b8154815290600101906020018083116102a957829003601f168201915b505050505081526020016002820180546102df90610d58565b80601f016020809104026020016040519081016040528092919081815260200182805461030b90610d58565b80156103585780601f1061032d57610100808354040283529160200191610358565b820191906000526020600020905b81548152906001019060200180831161033b57829003601f168201915b505050505081526020016003820154815250509050806020015181604001518260600151935093509350509193909250565b60006020528060005260406000206000915090508060000160009054906101000a900473ffffffffffffffffffffffffffffffffffffffff16908060010180546103d390610d58565b80601f01602080910402602001604051908101604052809291908181526020018280546103ff90610d58565b801561044c5780601f106104215761010080835404028352916020019161044c565b820191906000526020600020905b81548152906001019060200180831161042f57829003601f168201915b50505050509080600201805461046190610d58565b80601f016020809104026020016040519081016040528092919081815260200182805461048d90610d58565b80156104da5780601f106104af576101008083540402835291602001916104da565b820191906000526020600020905b8154815290600101906020018083116104bd57829003601f168201915b5050505050908060030154905084565b600073ffffffffffffffffffffffffffffffffffffffff166000803373ffffffffffffffffffffffffffffffffffffffff1673ffffffffffffffffffffffffffffffffffffffff16815260200190815260200160002060000160009054906101000a900473ffffffffffffffffffffffffffffffffffffffff1673ffffffffffffffffffffffffffffffffffffffff16146105ba576040517f08c379a00000000000000000000000000000000000000000000000000000000081526004016105b190610c3d565b60405180910390fd5b60008251116105fe576040517f08c379a00000000000000000000000000000000000000000000000000000000081526004016105f590610c1d565b60405180910390fd5b6000815111610642576040517f08c379a000000000000000000000000000000000000000000000000000000000815260040161063990610bdd565b60405180910390fd5b600042905060405180608001604052803373ffffffffffffffffffffffffffffffffffffffff168152602001848152602001838152602001828152506000803373ffffffffffffffffffffffffffffffffffffffff1673ffffffffffffffffffffffffffffffffffffffff16815260200190815260200160002060008201518160000160006101000a81548173ffffffffffffffffffffffffffffffffffffffff021916908373ffffffffffffffffffffffffffffffffffffffff160217905550602082015181600101908051906020019061071f9291906107a1565b50604082015181600201908051906020019061073c9291906107a1565b50606082015181600301559050503373ffffffffffffffffffffffffffffffffffffffff167f25935f501762e36f87d60d056f2654fdf9349f365d2c88fb8964ab0e6a9ccab284848460405161079493929190610b98565b60405180910390a2505050565b8280546107ad90610d58565b90600052602060002090601f0160209004810192826107cf5760008555610816565b82601f106107e857805160ff1916838001178555610816565b82800160010185558215610816579182015b828111156108155782518255916020019190600101906107fa565b5b5090506108239190610827565b5090565b5b80821115610840576000816000905550600101610828565b5090565b600061085761085284610c8e565b610c5d565b90508281526020810184848401111561086f57600080fd5b61087a848285610d16565b509392505050565b60008135905061089181610df9565b92915050565b600082601f8301126108a857600080fd5b81356108b8848260208601610844565b91505092915050565b6000602082840312156108d357600080fd5b60006108e184828501610882565b91505092915050565b600080604083850312156108fd57600080fd5b600083013567ffffffffffffffff81111561091757600080fd5b61092385828601610897565b925050602083013567ffffffffffffffff81111561094057600080fd5b61094c85828601610897565b9150509250929050565b61095f81610cda565b82525050565b600061097082610cbe565b61097a8185610cc9565b935061098a818560208601610d25565b61099381610de8565b840191505092915050565b60006109ab602783610cc9565b91507f456c207469706f20646520746974756c6f206e6f20707565646520657374617260008301527f20766163696f2e000000000000000000000000000000000000000000000000006020830152604082019050919050565b6000610a11602983610cc9565b91507f456c20657374756469616e7465206e6f207469656e6520756e20746974756c6f60008301527f20656d697469646f2e00000000000000000000000000000000000000000000006020830152604082019050919050565b6000610a77603183610cc9565b91507f456c206e6f6d627265206465206c6120696e737469747563696f6e206e6f207060008301527f7565646520657374617220766163696f2e0000000000000000000000000000006020830152604082019050919050565b6000610add602983610cc9565b91507f456c20657374756469616e7465207961207469656e6520756e20746974756c6f60008301527f20656d697469646f2e00000000000000000000000000000000000000000000006020830152604082019050919050565b610b3f81610d0c565b82525050565b6000608082019050610b5a6000830187610956565b8181036020830152610b6c8186610965565b90508181036040830152610b808185610965565b9050610b8f6060830184610b36565b95945050505050565b60006060820190508181036000830152610bb28186610965565b90508181036020830152610bc68185610965565b9050610bd56040830184610b36565b949350505050565b60006020820190508181036000830152610bf68161099e565b9050919050565b60006020820190508181036000830152610c1681610a04565b9050919050565b60006020820190508181036000830152610c3681610a6a565b9050919050565b60006020820190508181036000830152610c5681610ad0565b9050919050565b6000604051905081810181811067ffffffffffffffff82111715610c8457610c83610db9565b5b8060405250919050565b600067ffffffffffffffff821115610ca957610ca8610db9565b5b601f19601f8301169050602081019050919050565b600081519050919050565b600082825260208201905092915050565b6000610ce582610cec565b9050919050565b600073ffffffffffffffffffffffffffffffffffffffff82169050919050565b6000819050919050565b82818337600083830152505050565b60005b83811015610d43578082015181840152602081019050610d28565b83811115610d52576000848401525b50505050565b60006002820490506001821680610d7057607f821691505b60208210811415610d8457610d83610d8a565b5b50919050565b7f4e487b7100000000000000000000000000000000000000000000000000000000600052602260045260246000fd5b7f4e487b7100000000000000000000000000000000000000000000000000000000600052604160045260246000fd5b6000601f19601f8301169050919050565b610e0281610cda565b8114610e0d57600080fd5b5056fea26469706673582212207d1d0fd8fbb9eaff79bc1c5db1d0ddd7f1eb5673131310ccedd025c957b1f73164736f6c63430008000033",
  "linkReferences": {},
  "deployedLinkReferences": {}
}